:020000040800F2
:1000000000000824C94103081942030819420308E3
:1000100019420308194203081942030800000000AE
:10002000000000000000000000000000194203086A
:10003000194203080000000019420308090C0008D7
:100040001942030819420308194203081942030818
:100050001942030819420308194203081942030808
:1000600019420308194203081942030819420308F8
:10007000194203081942030809110008194203082C
:1000800019420308194203081942030819420308D8
:10009000194203081942030819420308953700085A
:1000A00019420308194203081942030819420308B8
:1000B00019420308194203081942030819420308A8
:1000C0001942030819420308194203081942030898
:1000D0001942030819420308194203081942030888
:1000E00019420308194203080000000019420308DE
:1000F0001942030819420308194203081942030868
:100100001942030819420308194203081942030857
:100110001942030819420308194203081942030847
:100120001942030819420308194203081942030837
:100130001942030819420308194203081942030827
:1001400019420308194203080000000000000000E3
:100150001942030819420308194203081942030807
:1001600019420308194203081942030819420308F7
:10017000194203081942030819420308000000004D
:1001800019420308194203081942030819420308D7
:1001900019420308194203081942030819420308C7
:1001A00019420308194203081942030819420308B7
:1001B000A72200081942030819420308194203083C
:1001C0001942030819420308194203081942030897
:1001D0001942030819420308194203081942030887
:1001E0001942030819420308194203081942030877
:1001F0001942030819420308194203081942030867
:100200001942030819420308194203081942030856
:100210001942030819420308194203081942030846
:10022000194203081942030819420308F11900088A
:100230001942030819420308194203081942030826
:100240001942030819420308194203081942030816
:100250001942030819420308194203081942030806
:1002600019420308194203081942030819420308F6
:1002700019420308194203081942030819420308E6
:10028000194203081942030819420308000000003C
:0802900019420308194203089A
:1002A00010B5054C237833B9044B13B10448AFF3B0
:1002B00000800123237010BD080900240000000005
:1002C000584B030808B5034B1BB103490348AFF370
:1002D000008008BD000000000C090024584B0308F2
:1002E00010F8012B11F8013B012A28BF9A42F7D0E0
:1002F000D01A7047034613F8012B002AFBD1181AB5
:1003000001387047000000000000000000000000FD
:1003100001F0FF01102A2BDB10F0070F08D010F8B6
:10032000013B013A8B422DD010F0070F42B3F6D1BA
:10033000F0B441EA012141EA014122F007047FF0D3
:1003400000070023F0E80256083C85EA010586EA2A
:10035000010685FA47F5A3FA87F586FA47F6A5FA66
:1003600087F68EB9EED1F0BC01F0FF0102F0070272
:1003700032B110F8013B013A83EA010313B1F8D11D
:100380000020704701387047002D06BF35460338FE
:10039000073815F0010F07D1013015F4807F02BF37
:1003A000013015F4C03F0130F0BC0138704700BF88
:1003B00053B94AB9002908BF00281CBF4FF0FF31CC
:1003C0004FF0FF3000F074B9ADF1080C6DE904CEC8
:1003D00000F006F8DDF804E0DDE9022304B0704720
:1003E0002DE9F047089D04468E46002B4DD18A42E8
:1003F000944669D9B2FA82F252B101FA02F3C2F11B
:10040000200120FA01F10CFA02FC41EA030E9440AB
:100410004FEA1C48210CBEFBF8F61FFA8CF708FBCC
:1004200016E341EA034306FB07F199420AD91CEBA4
:10043000030306F1FF3080F01F81994240F21C81D6
:10044000023E63445B1AA4B2B3FBF8F008FB10331E
:1004500044EA034400FB07F7A7420AD91CEB040453
:1004600000F1FF3380F00A81A74240F20781644423
:10047000023840EA0640E41B00261DB1D4400023A8
:10048000C5E900433146BDE8F0878B4209D9002D0C
:1004900000F0EF800026C5E9000130463146BDE896
:1004A000F087B3FA83F6002E4AD18B4202D3824200
:1004B00000F2F980841A61EB030301209E46002DAF
:1004C000E0D0C5E9004EDDE702B9FFDEB2FA82F204
:1004D000002A40F09280A1EB0C014FEA1C471FFA62
:1004E0008CFE0126200CB1FBF7F307FB131140EA49
:1004F00001410EFB03F0884208D91CEB010103F116
:10050000FF3802D2884200F2CB804346091AA4B2D7
:10051000B1FBF7F007FB101144EA01440EFB00FEAB
:10052000A64508D91CEB040400F1FF3102D2A64510
:1005300000F2BB800846A4EB0E0440EA03409CE7AF
:10054000C6F12007B34022FA07FC4CEA030C20FA5C
:1005500007F401FA06F31C43F9404FEA1C4900FA7C
:1005600006F3B1FBF9F8200C1FFA8CFE09FB1811F9
:1005700040EA014108FB0EF0884202FA06F20BD96C
:100580001CEB010108F1FF3A80F08880884240F2BC
:100590008580A8F102086144091AA4B2B1FBF9F000
:1005A00009FB101144EA014100FB0EFE8E4508D9FB
:1005B0001CEB010100F1FF346CD28E456AD9023880
:1005C000614440EA0840A0FB0294A1EB0E01A14265
:1005D000C846A64656D353D05DB1B3EB080261EBD3
:1005E0000E0101FA07F722FA06F3F1401F43C5E9AD
:1005F000007100263146BDE8F087C2F12003D840E3
:100600000CFA02FC21FA03F3914001434FEA1C4724
:100610001FFA8CFEB3FBF7F007FB10360B0C43EA16
:10062000064300FB0EF69E4204FA02F408D91CEBC6
:10063000030300F1FF382FD29E422DD902386344C4
:100640009B1B89B2B3FBF7F607FB163341EA034164
:1006500006FB0EF38B4208D91CEB010106F1FF38B3
:1006600016D28B4214D9023E6144C91A46EA0046AA
:1006700038E72E46284605E70646E3E61846F8E63C
:100680004B45A9D2B9EB020864EB0C0E0138A3E785
:100690004646EAE7204694E74046D1E7D0467BE766
:1006A000023B614432E7304609E76444023842E7DE
:1006B000704700BF00B587B00B4AD2F8E03043F472
:1006C0008073C2F8E0304FF400530193012302938A
:1006D000002303930223049301A9044800F06EF958
:1006E00007B05DF804FB00BF004402580020025828
:1006F00000B585B000F0ACFA00F070FAFFF7DAFF51
:1007000000F012FD1B4B02931B4B01931B4B0093FC
:100710001B4B1C4A4FF03031042003F027FB00F044
:10072000D9FB01F06BFF00F0C1FE01F029F90121B6
:10073000002002F0D3F802F071FF00F065F800F03D
:1007400073FA114B1B68C01AB0F57A7F0DD200F016
:100750006BFA0E4B1B68C01A0428F0D900F064FA3B
:100760000A4B186000F08CF8E9E700F05DFA064BE0
:100770001860ECE7BC4B0308C04B0308CC4B0308E4
:10078000904B0308544C46442409002428090024B3
:1007900010B50446104602F005F8034B1C602046D5
:1007A00024F047FA10BD00BF2C09002410B582B018
:1007B0000C4602F0ADFE012807D0124B1B78012B2E
:1007C00003D00023A37302B010BD0DF1060101A8F0
:1007D00002F0CCFF01280AD00023A373BDF9042046
:1007E0002280BDF806206280064A1370EBE70123E1
:1007F000A373BDF904202280BDF806206280014A5F
:100800001370E0E73009002438B507F0BBFB154D45
:10081000154B164A4FF05041284624F019F9144C54
:10082000204624F0EBF8E560124B63614FF4487307
:1008300023804FF4F0736380237C43F0020323741E
:10084000204624F013F90C4C204624F00AFA012328
:1008500023700A4B6360204624F018FA03F0DEFB95
:1008600038BD00BF3409002400DC0500000024D09E
:100870005009002491070008A0090024AD070008D2
:1008800008B527F01BF8052024F054FA08BD000035
:100890002D4BD3F8882042F47002C3F888201A69DF
:1008A00042F010021A61294B1B6803F00F03062B5C
:1008B00006D8264A136823F00F0343F0070313609A
:1008C000234B1A6842F001021A6000221A6119686B
:1008D000204A0A401A601D4B1B6813F0080F06D00F
:1008E0001A4A136823F00F0343F007031360184BF1
:1008F00000229A61DA611A62174999621749D9622E
:10090000174919635A639963DA6319645A64196859
:1009100021F4802119601A664FF0B042D2F8E43019
:1009200043F48043C2F8E4300E4B1A680E4B134078
:10093000B3F1005F03D20D4B0122C3F808210C4B29
:1009400043F2D2021A60704700ED00E0002000522E
:10095000004402587FEDF6EA000202020000FF01A7
:10096000800201010010005C0000FFFF00800051C8
:100970000040005210B503460C4A0D490D4800686E
:1009800040B10C4800680344521A934206D8094A01
:10099000136010BD0748084C0460F2E733F03EFCDA
:1009A0000C2303604FF0FF30F3E700BF0000082482
:1009B00000040000C009002438E20024F0B5002340
:1009C0006BE085685E000324B44025EA0405CC682A
:1009D000B4402C438460446824EA0C0C4C68C4F393
:1009E00000149C4044EA0C04446068E0DD080835CB
:1009F00050F8256003F007044FEA840C0F2404FA32
:100A00000CF426EA040E0C6904FA0CF444EA0E0411
:100A100040F825406BE0092400E0002404FA0EF4BD
:100A20002C430CF1020C664D45F82C404FF0B044BD
:100A30002568D44325EA02064F6817F4801F01D0C9
:100A400042EA05064FF0B0452E606D6804EA0506DF
:100A50004F6817F4001F01D042EA05064FF0B04579
:100A60006E60D5F8845004EA05064F6817F4003F1D
:100A700001D042EA05064FF0B045C5F88460D5F8CC
:100A800080502C404E6816F4803F01D042EA0504A5
:100A90004FF0B042C2F8804001330A6832FA03F4E2
:100AA00000F08C804FF0010C0CFA03FC1CEA0202EF
:100AB000F2D04C6804F00304013C012C81D94C684D
:100AC00004F00304032C0CD0C4685D004FF0030C49
:100AD0000CFA05FC24EA0C0C8C68AC4044EA0C04CB
:100AE000C4604C6804F00304022C3FF47FAF046838
:100AF0004FEA430E4FF0030C0CFA0EFC24EA0C0CE8
:100B00004C6804F0030404FA0EF444EA0C04046094
:100B10004C6814F4403FBFD02A4DD5F8F44044F05F
:100B20000204C5F8F4404FEA930C0CF10205244C82
:100B300054F8255003F003044FEA840E0F2404FAFE
:100B40000EF425EA0405204CA0423FF466AF04F5FC
:100B50008064A04222D004F58064A04220D004F535
:100B60008064A0421ED004F58064A0421CD004F52D
:100B70008064A0421AD004F58064A04218D004F525
:100B80008064A04216D004F58064A04214D004F51D
:100B90008064A0423FF43FAF0A243FE701243DE7D1
:100BA00002243BE7032439E7042437E7052435E72B
:100BB000062433E7072431E708242FE7F0BD00BF00
:100BC0000004005800440258000002588161704738
:100BD0004369194009048161704700004FF0E02328
:100BE0004EF65F225A610749F02081F82300002267
:100BF0009A6107221A611A6922F004021A6181F8C7
:100C00002300704700ED00E008B5054A1368013382
:100C10001360044B1B680BB11068984708BD00BFF8
:100C2000C8090024C4090024014B1868704700BF9C
:100C3000C809002482B0054B1B680193034B1B6855
:100C4000019A9B1A8342F9D302B07047C809002465
:100C500082B000230193564A136843F48033136033
:100C600002E0019B01330193514B1B6813F4003FD9
:100C700004D1019A42F210739A42F2D14C4B1B6894
:100C800013F4003F00F092804A4AD36823F03F03F8
:100C900043F00403D360936943F440439361454BAD
:100CA0009B6913F4005FFAD0414A936A23F003036F
:100CB00043F002039362136823F0807313603C4B8C
:100CC0001B6813F0007FFAD1394B996A3A4A0A40FF
:100CD00042F052029A62394A1A63DA6A22F0010239
:100CE000DA62596B364A0A405A63DA6A22F0CC0259
:100CF00042F0C002DA62DA6A22F0220242F02002F6
:100D0000DA62DA6A42F48032DA62DA6A42F4003293
:100D1000DA62DA6A42F48022DA62DA6A42F00102C6
:100D2000DA621A6842F080721A60214B1B6813F075
:100D3000007FFAD11E4B9A6922F00F0242F008029E
:100D40009A619A6922F0700242F040029A61DA696F
:100D500022F0700242F04002DA61DA6922F4E062C5
:100D600042F48062DA611A6A22F0700242F04002B4
:100D70001A629A6922F00F0242F008029A619A6997
:100D800022F470629A610F490A6822F00F0242F061
:100D900002020A601A6922F0070242F003021A6195
:100DA000034B1B6903F03803182BF9D102B07047CD
:100DB00000440258004802580CFCFFFFBF02040127
:100DC0000700FFFF00200052F0B587B00023019319
:100DD0000293039304930593344B1B680BB107B044
:100DE000F0BD324B01221A60314BD96C314A0A40B6
:100DF00042F08072DA64D3F8D42042F48052C3F80F
:100E0000D420D3F8E01040F2FF720A43C3F8E02088
:100E100040F2FF63019302260296032504950C24F9
:100E2000059401A92448FFF7C9FD4FF68373019388
:100E30000296002703970495059401A91F48FFF720
:100E4000BDFD4FF6E0730193029603970495059458
:100E500001A91B48FFF7B2FD48F237130193029630
:100E600003970495059401A91648FFF7A7FD4CF2D6
:100E700003730193029603970495059401A9124800
:100E8000FFF79CFD4FF63F030193029603970495ED
:100E9000059401A90D48FFF791FD0D4BF02283F851
:100EA00030234FF480325A6099E700BFCC09002408
:100EB00000440258FCFFFFFE0020025800100258B8
:100EC000001C025800180258000C02580014025866
:100ED00000E100E030B589B0FFF776FF29490B6CDF
:100EE00023F4F84343F4C0530B644B6C264A1A4076
:100EF00040F2E51313434B640022019202920392E5
:100F00000492059206920792022301930720029011
:100F10000424039404900324059406930793886C97
:100F20001A4B034043F483138B64C86C00F0704089
:100F3000039B013B1B0243F06103059D05F1FF3C50
:100F400043EA0C43079D05F1FF3C43EA0C6303436E
:100F5000CB64A1F580710B6843F000430B600C4833
:100F600008230360446040F203638360C26002614F
:100F70003023436182614FF40073C36100F090F845
:100F800009B030BD004100520080FFFFFF0F0FFF8E
:100F9000D009002438B50546FFF746FE0446FFF7A2
:100FA00043FE001BA842FAD338BD0000074B0122C4
:100FB0001A6058609A600022DA60054A116D054B8C
:100FC0000B4040F00100184310657047F009002401
:100FD000004100520000C0FF084B02221A60586016
:100FE00001229A600022DA60054A116D054B0B4020
:100FF00040F0020018431065704700BFF00900245C
:10100000004100520000C0FF10B4C36802691343DE
:101010004269134382691343C26913430A49042294
:101020000A6002684A6001208860CB600748046D4E
:101030000749214042F0040242EA43230B4303657F
:101040005DF8044B704700BFF009002400410052D6
:101050000000C0FF10B4094B1960586008229A6064
:101060000022DA60064A146D064B2340014341F02A
:10107000E001194311655DF8044B7047F009002445
:10108000004100520000C0FF034A516D034B0B406A
:1010900043EA4003536570470041005201C0FFFF1F
:1010A00010B504460068FFF781FF0120FFF772FFCB
:1010B0002068FFF791FF61682068FFF7CBFF2046AB
:1010C000FFF7A2FFA068FFF7DFFF10BD0A4B1B78F8
:1010D000002BFBD0094BD965094A1A665866064AA7
:1010E000002111709A6D42F001029A65054A9368D9
:1010F00043F080039360704700000024000002402A
:10110000281001400010014008B5054B01221A705B
:10111000044A936843F00063936002F0E1FD08BD68
:10112000000000240000024030B587B01E4CD4F807
:10113000E03043F00103C4F8E0304FF4C0630193A2
:10114000022302930025039504950723059301A923
:101150001648FFF733FCD4F8F03043F01003C4F81E
:10116000F030134BDD6140F21242DA60AD221A60BA
:10117000D4F8D83043F00103C4F8D8300D4B0E4AF0
:101180009A652A22C3F80C280C4BF02283F80E2310
:101190004FF480421A600A4802F074FD094802F0D8
:1011A0003DFE07B030BD00BF0044025800000258A9
:1011B00000100140000002405004100000E100E077
:1011C000CD100008290C0008224A136823F0805330
:1011D0001360204B1B6813F0005FFAD11D4B9A6A15
:1011E00022F07C7242F4A0029A621B4A1A64DA6A04
:1011F00022F4406242F40062DA62DA6A22F4007297
:10120000DA62DA6A22F48072DA62596C134A0A40AE
:101210005A64DA6A42F48072DA62DA6A42F0807200
:10122000DA621A6842F080521A600A4B1B6813F0A7
:10123000005FFAD0074AD2F8E43043F00803C2F85E
:10124000E430074BF02283F858234FF080729A6005
:10125000704700BF00440258830201170700FFFFD8
:1012600000E100E010B48FB0012305930693022340
:10127000079308934FF4F1730A935223099340F2B2
:10128000E3130C9353230B9300238DF834308DF824
:1012900035308DF836300193029303930493264B37
:1012A0009A6922F070429A619A699A619968234A10
:1012B0001140996099680698059C40EA04400143F2
:1012C0009960D9681140D960D9680898079C40EAAC
:1012D00004400143D96019691140196119690A98DC
:1012E000099C40EA04400143196159690A405A6166
:1012F0005A690B980C9941EA00410A435A619DF8DA
:1013000035009DF836201204D96A01F07F41D96278
:10131000D96A42EA00229DF8340002430A43DA62A5
:101320005A6B42F006025A639A6942F001029A61CE
:101330000FB05DF8044B70470010005000F800F04B
:1013400070B54368444CE568C5F30B451D444FEA4E
:10135000C11C424A02EBC1114B6803F470434B605D
:101360000368E668C6F30B4E7344013343EA054352
:101370004B60C368E568C5F30A0E9E448B6803F4AE
:1013800070438B608368E468C4F30A042344013328
:1013900043EA0E438B600B6923F007030B6103697B
:1013A0000B6190F831E090F8326085698B69002418
:1013B0008C6190F8303043EA0E2343EA064343EA57
:1013C00005638B614B6923F0FF034B6143694B61FC
:1013D000CD69234B2B40CB61C369056A2B43CB619D
:1013E0008B6A8C62436A8B6203696BB1012B2CD0D0
:1013F000022B18BF042B2AD0032B2AD0072B01D095
:10140000012502E0022500E00425CC6A04F0E02476
:10141000CC62846A05FB04F4436806689B1B05FBE9
:1014200003F3073343EA0443CB620C6B0D4B2340B9
:101430000B63C36A0B635CF8023043F001034CF8A2
:101440000230054B01225A6270BD0325DDE70225FB
:10145000DBE70225D9E700BF0010005084100050E0
:10146000F8F8FFFF00F8FFFF10B58EB000230193DE
:101470005024029403934FF4F072049205930A915E
:10148000FF21069107938DF834308DF835308DF8B3
:1014900036304FF4C0630893072309930B940C92E2
:1014A000014601A8FFF74CFF0EB010BD08B5FFF7CD
:1014B0008BFEFFF7D7FE4FF050410020FFF7D4FF1F
:1014C00008BD0000034690B1012829D0022818BFAA
:1014D000042828D0072814BF00200120032B03D0A4
:1014E00010B94FF0010C04E04FF0020C01E04FF096
:1014F000040C01FB0CFC0D4B03EBC212D16A0C4B2C
:101500000B40D3620B4B586A40F001005862D16A1D
:1015100041EA0C41D1625A6A42F001025A627047B4
:101520004FF0030CE5E74FF0020CE2E784100050A7
:10153000FFFF00E00010005041EA801141EA022163
:1015400041EA03414FF0A043D966704700B587B028
:10155000002301930293039304930593104BD3F854
:10156000E42042F01002C3F8E420D3F8E02042F473
:101570000072C3F8E0200423019302230293049332
:101580000D23059301A90748FFF718FA064BF0222F
:1015900083F87B234FF00062DA6007B05DF804FB4C
:1015A000004402580024025800E100E010B54FF05A
:1015B000A042D2F8303443F08073C2F830344FF098
:1015C000A043D3F80C3413F4805FF8D04FF0A0435D
:1015D000D3F830148B4A0A40C3F83024D3F83024AF
:1015E00042F40562C3F83024D3F8302442F00102FB
:1015F000C3F830240120FFF71DFB4FF0A043D3F8C0
:101600000C3413F4807FF8D04FF0A043D3F8A0201F
:1016100042F00602C3F8A020D3F8942022F003027F
:10162000C3F89420D3F8942042F00102C3F8942028
:10163000D3F8A42022F00302C3F8A420D3F8A420F6
:1016400042F00102C3F8A4209A6822F0FF029A60D7
:101650009A6842F004029A60D3F8182422F03F02FC
:10166000C3F81824D3F8182442F00802C3F8182449
:101670000021C3F8C410C3F8C8109A6822F47F424E
:101680009A609A6842F480729A609A6F92B29A67EE
:10169000986F5D4A02439A67986F5C4A104098675A
:1016A0009C6F41F2883020439867D86F1040D8670C
:1016B000D86FD867D3F880001040C3F88000D3F803
:1016C0008000C3F88000D3F884001040C3F8840081
:1016D000D3F88400C3F88400D3F8840020F080702D
:1016E000C3F88400D3F88400C3F88400D3F88800DA
:1016F0001040C3F88800D3F88800C3F88800D3F8F6
:101700008C000240C3F88C20D3F88C20C3F88C20C6
:10171000D3F8982002F0FC22C3F89820D3F8982040
:1017200042F02112C3F89820D3F89C2002F4004222
:10173000C3F89C20D3F89C00354A0243C3F89C2090
:10174000D3F8A42022F47F42C3F8A420D3F8A42025
:10175000C3F8A420DA6A22F01F02DA62DA6A42F0E1
:101760000402DA62D3F81C2422F44032C3F81C24A9
:10177000D3F81C2442F48022C3F81C24D3F81C2480
:1017800022F00302C3F81C24D3F81C2442F0040204
:10179000C3F81C24D3F81C2422F44022C3F81C24D0
:1017A000D3F81C2442F48012C3F81C24D3F81C2460
:1017B00022F00C02C3F81C24D3F81C2442F01002BF
:1017C000C3F81C24D3F81C2422F0C062C3F81C24E4
:1017D000D3F81C24C3F81C24C3F8C410C3F8C810E1
:1017E000D3F8C82042F00302C3F8C820D3F81C2461
:1017F00022F48052C3F81C24D3F81C24C3F81C2400
:1018000010BD00BF0386FCFF000010270000FFFF93
:101810000000211C4FF0A043D96A21F01F01D962BA
:10182000DA6A0243DA62704710B58CB00023019384
:1018300006930793089305220292502203921022E6
:101840000492059309930A930B934FF0A044636BA2
:1018500043F001036363D4F8003423F00103C4F8B8
:101860000034D4F8003443F00103C4F80034E368D2
:1018700023F00303E360E368E360636923F0070395
:1018800063616269089B07990B4306990B431343F5
:101890006361236923F00F032361236943F0050388
:1018A0002361D4F8003423F00E03C4F80034D4F8D4
:1018B000003443F00A03C4F80034626E2E4B134028
:1018C0006366636E43F050036366D4F8003423F01C
:1018D000F003C4F80034D4F80024049B05990B43AA
:1018E0000A990B4309990B431343C4F80034A36EC0
:1018F00023F00103A366A36E0B9A1343A366D4F8E7
:10190000083443F00303C4F80834A26E1B4B1340A1
:10191000A366A26E036841680B4381680B43C168EC
:101920000B4301690B4341690B4381690B43C16957
:101930000B43016A0B43416A0B43816A0B43C16A43
:101940000B431343A366A36E23F00203A366A36EA7
:10195000026B1343A3660420FFF75CFFD4F81C342A
:1019600023F48003C4F81C34D4F81C3443F48003FB
:10197000C4F81C340CB010BD0000FFFFFF80F0FE67
:1019800000B58FB0FFF7E2FDFFF710FE4FF4807354
:1019900001934FF4007302934FF4806303934FF469
:1019A000006304934FF4805305934FF40053069360
:1019B0004FF4804307934FF4803308934FF4003380
:1019C00009934FF480230A934FF400230B9301A84B
:1019D000FFF72AFF0FB05DF804FB0000024B186010
:1019E000024B1960704700BF040A0024000A00245B
:1019F00008B54FF0A043D3F80C3413F0010F0FD00B
:101A00004FF0A043D3F8083413F0010F08D04FF083
:101A1000A0430122C3F810240D4B1B6803B1984763
:101A20004FF0A043D3F80C3413F0020F0FD04FF057
:101A3000A043D3F8083413F0020F08D04FF0A043AE
:101A40000222C3F81024034B1B6803B1984708BD5A
:101A5000040A0024000A002410B44FF0A044646F6C
:101A600014F0010FF9D041EA801141EA022141EA64
:101A700003434FF0A042D3665DF8044B7047F8B5BE
:101A80001746069D4FF0A042526F12F0010FF9D099
:101A9000BC46032F28BF4FF0030C002404E02A5D4E
:101AA0000134E600B24013436445F8D34FF0A0423E
:101AB0001367A7EB0C0665440FE015F803C04FEA67
:101AC000C30E0CFA0EFC42EA0C020133A342F4D31B
:101AD0004FF0A0431A67361B254436B13446042E16
:101AE00028BF042400221346F0E77A1CC2F3072320
:101AF000D2B2FFF721FDF8BDF8B50D461446022A13
:101B000012D8002C31DD4FF0A0435B6F13F01003AF
:101B100019D04FF0A0435B6F13F0400FF1D14FF09D
:101B2000A043D3F8C030ECE706461F46C2F30723B4
:101B3000D2B23721FFF790FF0023069A394630468C
:101B4000FFF7FAFCDDE74FF0A042116F2246042CAC
:101B500028BF042206E0D80021FA00F005F8010BA6
:101B6000013C01339342F6D3D3E7F8BD4FF0A043D5
:101B70005A6842F001025A60D3F8042442F0080285
:101B8000C3F8042470474FF0A042D2F8043443F065
:101B90000403C2F804347047F0B4436A33B1B1F1BE
:101BA000406F03D0836A013B714A13618269002A46
:101BB0006ED0056A002D3BD082686D4BDA61C26938
:101BC000F2B1C36A046B2343446B2343446A234347
:101BD000446943EA844304692343046A2343C46891
:101BE0002343134382691343026813430B43604A40
:101BF0005361B1F1406F19D042685D4B9A6115E0B5
:101C0000C36A046B2343446B2343446A23434469FC
:101C100043EA844304692343046A234313438269E8
:101C20001343026813431943514B5961F0BC704789
:101C3000C469D4B1C36A066B3343466B3343466A07
:101C40003343466943EA86432B43C5682B4323430A
:101C50001343026813430B43454A5361B1F1406F8C
:101C6000E4D04268424B9A61E0E7C36A066B3343B3
:101C7000466B3343466A3343466943EA86432B4304
:101C800023431343026813431943394B5961CDE78A
:101C9000046A002C37D08268354BDA61C469E4B13C
:101CA000C36A026B1343426B1343426A1343426994
:101CB00043EA824302691343026A1343C26813432F
:101CC0002343826913430B43294A5361B1F1406FA7
:101CD000ACD04268264B9A61A8E7C26A036B1A43EC
:101CE000436B1A43436A1A43436942EA83420369D6
:101CF0001A43036A1A4344EA0203826913431943ED
:101D00001B4B596192E7C569CDB1036BC66A33437A
:101D1000466B3343466A3343466943EA864323436B
:101D2000C46823432B4313430B43114A5361B1F15E
:101D3000406F3FF47BAF42680D4B9A6176E7436A90
:101D4000002B3FF473AFC66A076B46EA070C466B7D
:101D50004CEA060C43EA0C03406943EA80431C4307
:101D600045EA040313431943014B59615EE700BF81
:101D70000050005210B4144B9C6900B30146184641
:101D80001A6901325B6923F0406343F08063436169
:101D900084610AE00C4B9B6813F0060FFAD00A4BE3
:101DA00093F8203001F8013B013A002AF2D1064BAA
:101DB0009B6813F0020FFAD0034B0222DA60002076
:101DC0005DF8044B704700BF005000520146E0B17F
:101DD0000F4B1A690132586920F0406058610AE0DF
:101DE0000B4B9B6813F0040FFAD011F8010B084B52
:101DF00083F82000013A002AF2D1054B9B6813F0CA
:101E0000020FFAD0024B0222DA600020704700BFB6
:101E10000050005270B582B006460D461C460023A5
:101E2000019300920C4B9B68334214BF01230023A3
:101E3000AB420DD0FEF7F8FE009BC01AA04201D8BD
:101E4000002CEFD1012301930198C0B202B070BD04
:101E50000198C0B2FAE700BF0050005210B582B03E
:101E6000044601238DF80730FEF7DEFE02464FF4EC
:101E70007A7300212020FFF7CDFF8DF807009DF831
:101E800007301BB19DF8070002B010BD00212046AD
:101E9000FFF782FE636A002BF4D1FEF7C5FE02460F
:101EA0004FF47A7301210220FFF7B4FF0028E9D133
:101EB000014B0222DA60E5E70050005270B582B0B3
:101EC00005460C4600268DF80760FEF7ADFE02467B
:101ED0004FF47A7331462020FFF79CFF8DF80700FE
:101EE0009DF807301BB19DF8070002B070BD236854
:101EF000114A936263685362A368D362136823F440
:101F0000400321690B4343F480031360E368AB6231
:101F10004FF000612846FFF73FFEFEF785FE0246C0
:101F200041F2883301210820FFF774FF0028DAD13D
:101F3000014B0822DA60D6E70050005238B505465A
:101F40000C46FEF771FE02464FF47A730021202002
:101F5000FFF760FF70B90D4A136823F0080361684A
:101F60000B4313606368082B06D04FF0406128468E
:101F7000FFF712FE002038BD2268044B1A631022BE
:101F8000DA601A6842F480121A60EEE700500052DC
:101F90002DE9F04387B0474BD3F8D42042F4804278
:101FA000C3F8D420DA6F42F48042DA67DA6F22F4A1
:101FB0008042DA67D3F8E02042F04002C3F8E02024
:101FC000D3F8E02042F02002C3F8E020D3F8E0206C
:101FD00042F08002C3F8E020D3F8E02042F0020291
:101FE000C3F8E020D3F8E02042F00802C3F8E02074
:101FF0004FF484430193022502950026039603249F
:10200000049409270597DFF8C08001A94046FEF730
:10201000D5FC4023019302950123039304944FF0D0
:102020000A09CDF8149001A94046FEF7C7FCC02369
:1020300001930295039604940597A8F5806801A979
:102040004046FEF7BBFC4FF40073019302950396E4
:102050000494CDF8149001A94046FEF7AFFC0C2380
:102060000193029503960494059701A91248FEF77F
:10207000A5FC0423019302950396049405970DEBA8
:1020800003010E48FEF79AFC4FF40063019302959A
:1020900003960494059701A90948FEF78FFC094BA4
:1020A000F02283F85C234FF080529A6007B0BDE8BD
:1020B000F08300BF00440258001C0258000402587C
:1020C000000C025800E100E00018025800B589B089
:1020D000FFF75EFF03230093012301930023029384
:1020E0004FF0006393FAA3F3002B35D0B3FA83F3D8
:1020F000013B03934FF4407304930023059306932D
:1021000040230793154A136823F470631360134B3D
:102110009B6813F0200FFAD1104A13681049194038
:102120000098029B43EA0063069803430798034321
:102130000B43136051680B4B0B400398049941EA21
:102140000041059801430B435360136843F00103BA
:10215000136009B05DF804FB2023C9E7005000526A
:102160002FFFFF00FEF8E0FF10B596B004460023F5
:102170008DF8573003282ED04FF480730D9306232B
:10218000079300230E930F9310930C9312931393C2
:10219000149307A8FFF762FE00BB40F202230193ED
:1021A00002930023059302230493102303934FF417
:1021B0008003069305230793032C16D04FF08073FA
:1021C000109301A907A8FFF779FE88B99DF8570079
:1021D000C0B216B010BD4FF44073CFE701238DF8A5
:1021E00057309DF85700C0B2F3E74FF04073E7E770
:1021F00001238DF857309DF85700C0B2E9E710B5BC
:1022000090B0044600238DF806304FF440720892D7
:102210008522029209930A934FF040720B92079322
:1022200002220C920D930E930F9302A8FFF716FE55
:1022300010B1012010B010BD0DF10700FFF79AFD9D
:1022400008B10120F6E72046FFF78EFF30B10123E9
:102250008DF806309DF80600C0B2EBE781230293AB
:102260009DF8073003F00F0343F080038DF807302B
:1022700002A8FFF7F3FD30B101238DF806309DF879
:102280000600C0B2D6E70DF10700FFF79FFD18B9B1
:102290009DF80600C0B2CDE701238DF806309DF809
:1022A0000600C0B2C6E7FEE700B591B000238DF886
:1022B0003F30032816D04FF48073079366230193B1
:1022C0000023089309930A9306930C930D930E939E
:1022D00001A8FFF7C3FD40B99DF83F00C0B211B09F
:1022E0005DF804FB4FF44073E7E701238DF83F30BE
:1022F0009DF83F00C0B2F2E700B595B04FF44073CF
:102300000C930523069300230D930E934FF0407218
:102310000F9202220B921193129313930093049342
:10232000102302934FF48003059340F201130193AD
:102330000392694606A8FFF7C1FD10B915B05DF814
:1023400004FB0120FAE700B58FB0032813D04FF447
:1023500080730693992300930023079308930993AE
:1023600005930B930C930D936846FFF777FD28B9FF
:102370000FB05DF804FB4FF44073EAE70120F7E784
:1023800010B504460320FFF78FFF08B1012010BDF0
:102390000320FFF7D8FF08B10120F8E7E0B2FFF70C
:1023A000ABFF08B10120F2E7FFF77EFF08B1012083
:1023B000EDE7FFF7C8FF0028E9D00120E7E710B5F7
:1023C0008EB00446032813D04FF480730693B723CE
:1023D0000093002307930893099305930B930C93A1
:1023E0000D932046FFF7C0FE28B101200EB010BDAE
:1023F0004FF44073EAE76846FFF730FD08B101206B
:10240000F4E72046FFF778FF0028EFD00120EDE742
:1024100000B58FB04FF480730693F523009300232B
:1024200007930893099305930B930C930D936846B8
:10243000FFF714FD10B90FB05DF804FB0120FAE7B7
:1024400000B58FB04FF480730693352300930023BB
:1024500007930893099305930B930C930D93684688
:10246000FFF7FCFC10B90FB05DF804FB0120FAE7A0
:1024700008B5032803D003290BD0002008BD032989
:1024800001D10020FAE7FFF7C3FF0028F6D00120B2
:10249000F4E7FFF7D5FF0028F0D00120EEE700B504
:1024A00091B003280ED8DFE800F00225313D4FF44B
:1024B000807308930E2302934FF4806309934FF0C7
:1024C00080730B934FF44053059300230A93082223
:1024D00007924FF000420D924FF080420E920F9300
:1024E00001930093694602A8FFF728FD30BB11B0A5
:1024F0005DF804FB4FF4807308933D2302934FF47F
:10250000806309934FF000730B93DBE74FF4807304
:102510000893EE2302934FF4406309934FF0407306
:102520000B93CFE74FF440730893ED2302934FF4DE
:10253000406309934FF040730B93C3E70120D6E744
:1025400000B591B003280ED8DFE800F002212D3944
:102550004FF4807308930E2302934FF48063099322
:102560004FF080730B93082307934FF44053059368
:1025700000230A930D930E930F93019300936946E2
:1025800002A8FFF7DBFC30BB11B05DF804FB4FF491
:10259000807308933D2302934FF4006309934FF037
:1025A00000730B93DFE74FF480730893EE230293DD
:1025B0004FF4406309934FF040730B93D3E74FF40C
:1025C00040730893ED2302934FF4406309934FF057
:1025D00040730B93C7E70120D6E708B520B9032065
:1025E000FFF7AEFF38B908BD0320FFF758FF0028FA
:1025F000F9D00120F7E70120F5E7000000B585B02C
:10260000FFF764FD00208DF80F00FFF7B9FE98B1C9
:1026100001238DF80F309DF80F3093BB1A4B1B4AE6
:10262000019200931A4B1B4A4FF03031042001F005
:102630009DFB05B05DF804FB0020FFF75DFE18B1BF
:1026400001238DF80F30E6E70020FFF7B8FE18B140
:1026500001238DF80F30DEE70020FFF7D0FD18B121
:1026600001238DF80F30D6E703210020FFF700FF8C
:102670000120FFF7B2FF0028CDD001238DF80F30E5
:10268000C9E70023CBE700BFD84B0308004C030881
:10269000EC4B0308544C464410B582B014461A461D
:1026A000012B06D900940B463921FFF7E8F902B057
:1026B00010BDE35C0A461521FFF7CEF9F7E710B528
:1026C00082B00C4611461A46019100940623FFF78A
:1026D00013FA02B010BD000008B5FFF754FA034A20
:1026E000136A23F47063136208BD00BF002402580C
:1026F0002DE9F04186B0284CD4F8E03043F0400397
:10270000C4F8E0304FF00808CDF8048001250295A8
:10271000039502260496214F01A93846FEF74EF98B
:1027200041463846FEF754FA1420FEF783FA414634
:102730003846FEF74BFA0A20FEF77CFAD4F8E03070
:1027400043F40073C4F8E0304FF48058CDF80480AF
:102750000295049600270397114D01A92846FEF71C
:102760002DF941462846FEF731FAD4F8E03043F41B
:102770000073C4F8E0300424019402960397049691
:102780000DEB04012846FEF719F921462846FEF70D
:102790001DFA06B0BDE8F081004402580018025846
:1027A00000240258074B1B78012BFBD1054B00225C
:1027B0001A70054A136A43F450631362034B18609E
:1027C000704700BF0100002400240258080A0024BA
:1027D00000B583B0064B03EB800300932A23042249
:1027E00039210020FFF74BF903B05DF804FB00BF6F
:1027F0000400002410B584B0344B1B68092B36D874
:10280000002000904FF0A043D3F8042422F00802E7
:10281000C3F80424D3F8042402F008020092009ABA
:102820002A4C226802EB82024FEA821C284A116875
:102830006144284AC2F8AC10516A41F0010151626A
:102840000190D3F8042442F00802C3F80424D3F81A
:10285000043403F008030193019B2068FFF7B8FFDD
:10286000236801332360FFF78EF904B010BD002206
:1028700002924FF0A043D3F8041421F00801C3F8EA
:102880000414D3F8041401F00801029102991049CC
:1028900008681049C1F8AC00486A40F0010048627D
:1028A0000392D3F8041441F00801C3F80414D3F8D8
:1028B000043403F008030393039B044B1A60186865
:1028C000FFF786FF044B01221A70CEE70C0A0024A2
:1028D000080A0024001000500100002470B596B0D2
:1028E0000C464E4BC0EBC00503EB85020421116181
:1028F0000121D1604FF4487643F825604FF4F0751C
:102900005560916100259D60FFF7F2FE44494548FE
:10291000FFF764F8FFF72AF9ADF84450424B1493DF
:10292000424B1293424B1393424D11A9284600F09B
:1029300031FC15A9284600F021FC002865D03E4B4B
:102940003E4A4FF03031042001F010FA0120FEF72A
:1029500071F922467721374800F094F80024049456
:10296000059406940794089409940A940B940C9483
:102970000D940E940F94109404A8FEF755FF0420B4
:10298000FEF748FFFFF7F2F802944FF0A045D5F8A4
:10299000043423F00803C5F80434D5F8043403F0F4
:1029A00008030293029B22464FF448712046FEF72B
:1029B00089FD0394D5F8043443F00803C5F80434C2
:1029C000D5F8043403F008030393039B1C4B0093D6
:1029D0002A23042239212046FFF751F8194B00938E
:1029E0002B23042239212046FFF749F8164B009388
:1029F0004423022239212046FFF741F8134A136A83
:102A000043F45063136216B070BD114B0B4A4FF084
:102A10003031042001F0AAF998E700BF100A002421
:102A2000F5270008D9260008290C00089926000877
:102A3000BF2600082C0A00240C4C0308544C4644C2
:102A4000040000242C00002430000024002402583C
:102A5000304C030810B584680088A04710BD10B53D
:102A600044680088A04710BD70B504460E46C36890
:102A700098470546E3689847401BB042FAD30020C8
:102A800070BD00002DE9F04F85B0834600910192A2
:102A900000F11004F44D6E1C002332461946204606
:102AA00000F093FB80460323F04AFF21204600F00C
:102AB0008CFB8044AF1C00233A461946204600F0A8
:102AC00084FB80440223EA4AFF21204600F07DFB7C
:102AD000804400233A461946204600F076FB8044A5
:102AE0000023EA1CC421204600F06FFB80440A2129
:102AF0005846FFF7B9FF00232A1D1946204600F06B
:102B000064FB804400236A1DC421204600F05DFB65
:102B100080440A215846FFF7A7FF0023AA1D194643
:102B2000204600F052FB80440023EA1DC5212046C8
:102B300000F04BFB8044002305F1080219462046B3
:102B400000F043FB804405F1090A00235246C521E9
:102B5000204600F03AFB8044002305F10A021946A2
:102B6000204600F032FB8044002305F10B02C02117
:102B7000204600F02AFB80440023324619462046B6
:102B800000F023FB8044002305F10C02D9212046EC
:102B900000F01BFB8044002305F10D02194620467E
:102BA00000F013FB8044002305F10E02C1212046F2
:102BB00000F00BFB804405F10F0900234A4619463B
:102BC000204600F002FB8044002305F11002C121E1
:102BD000204600F0FAFA8044002305F1110219465C
:102BE000204600F0F2FA8044002305F11202C521CC
:102BF000204600F0EAFA8044002305F1130219464A
:102C0000204600F0E2FA804400235246C5212046C7
:102C100000F0DBFA8044002332461946204600F0DB
:102C2000D4FA80440223934AD821204600F0CDFAFA
:102C30008044002305F114021946204600F0C5FA2D
:102C40008044002305F11502C521204600F0BDFA9D
:102C50008044002305F116021946204600F0B5FA1B
:102C60008044002305F11702C021204600F0ADFA90
:102C70008044002305F118021946204600F0A5FA09
:102C80008044002305F11902C521204600F09DFA79
:102C90008044002305F10D021946204600F095FA04
:102CA0008044002305F11A02C421204600F08DFA69
:102CB000804400234A461946204600F086FA8044A4
:102CC000002305F11B02C121204600F07EFA80445A
:102CD000002305F11C021946204600F076FA8044D4
:102CE0000223654AB321204600F06FFA8044002396
:102CF0003A461946204600F068FA804406235F4AA7
:102D0000CE21204600F061FA8044002305F11D0227
:102D10001946204600F059FA80440E23584ACE2125
:102D2000204600F052FA8044002305F11E021946A5
:102D3000204600F04AFA80440E23524ACE21204613
:102D400000F043FA804405F11F0A00235246194659
:102D5000204600F03AFA80440A234B4ACF2120460D
:102D600000F033FA804405F1200900234A46194651
:102D7000204600F02AFA8044002305F12D02CF21DD
:102D8000204600F022FA804400233A4619462046A5
:102D900000F01BFA80440A233C4ACB21204600F075
:102DA00014FA8044002305F121021946204600F060
:102DB0000CFA80440F23364ACB21204600F005FA56
:102DC0008044002305F11D021946204600F0FDF95C
:102DD00080440F232F4ACB21204600F0F6F980448F
:102DE000002305F11E021946204600F0EEF980444A
:102DF0000A23294ACB21204600F0E7F9804400232A
:102E000052461946204600F0E0F980440F23234A39
:102E1000CB21204600F0D9F9804400234A461946C8
:102E2000204600F0D2F980440F231D4ACB212046D2
:102E300000F0CBF98044002305F122021946204618
:102E400000F0C3F980440A23164ACB21204600F043
:102E5000BCF98044002305F123021946204600F006
:102E6000B4F980440A231FE0904D0308604C030826
:102E7000EC4C0308604D0308644D0308684D0308DB
:102E8000704D0308804D0308644C0308704C030820
:102E90007C4C03088C4C03089C4C0308A84C03088A
:102EA000B84C0308C84C0308A54ACB21204600F0C3
:102EB0008CF9804400233A461946204600F085F9F3
:102EC00080440A239F4ACC21204600F07EF98044AA
:102ED000002305F121021946204600F076F98044CE
:102EE0000F23994ACC21204600F06FF9804400233B
:102EF00005F11D021946204600F067F980440F23B2
:102F0000924ACC21204600F060F98044002305F16C
:102F10001E021946204600F058F980440A238C4AC4
:102F2000CC21204600F051F9804400235246194636
:102F3000204600F04AF980440F23864ACC212046DF
:102F400000F043F9804400234A461946204600F029
:102F50003CF908EB00070F237F4ACC21204600F004
:102F600034F90744002305F10D021946204600F00C
:102F70002CF90744002305F12E02C521204600F05C
:102F800024F90744002305F12F021946204600F0DA
:102F90001CF90744002305F13002F521204600F01A
:102FA00014F90744002305F131021946204600F0C8
:102FB0000CF90744002305F13202C621204600F037
:102FC00004F90744002332461946204600F0FDF874
:102FD00007440323614AFF21204600F0F6F8074426
:102FE000002332461946204600F0EFF8074400233C
:102FF00032461946204600F0E8F807441023584AA4
:10300000E121204600F0E1F807440023324619464A
:10301000204600F0DAF83E181023524AE2212046FA
:1030200000F0D3F80644002305F1240211212046C4
:1030300000F0CBF8351878215846FFF715FD009BB6
:10304000002B51D0022B0AD1002309F105023A21AD
:10305000204600F0BAF80544434B02225A60019B17
:10306000012B4CD0404B00221A60404E002306F149
:1030700027025121204600F0A8F8054400273A4BCA
:103080009F603B4606F128025321204600F09DF840
:1030900005443B4606F129025521204600F095F8EB
:1030A00005443B4606F12A025E21204600F08DF8D9
:1030B00005443B4606F12B022921204600F085F805
:1030C00005443B46721C3946204600F07EF8054414
:1030D0003B4606F12C022C21204600F076F82818F9
:1030E0002AD105B0BDE8F08F0023214A3A212046BD
:1030F00000F06BF805441C4B00225A60AFE76023D8
:103100008DF80F3000230DF10F023621204600F01C
:103110005CF805440423174A2A21204600F055F89C
:1031200005440423144A2B21204600F04EF80544A0
:103130000D4B01221A6098E74FF0FF30D1E700BF36
:10314000D44C0308E04C0308F04C0308004D03087E
:10315000104D03081C4D03082C4D03083C4D03087B
:10316000404D0308504D03084C0A0024904D0308BD
:10317000B64D0308584C03085C4C030808B50A46D2
:103180000023DA21103000F01BF800B908BD4FF021
:10319000FF30FBE7034660B14A6842608A6882609C
:1031A000CA68C260044A4261044A02619861002010
:1031B00070474FF0FF307047552A00085F2A00081B
:1031C00010B544688068A04710BD10B504688068D9
:1031D000A04710BDC0F3090040EA01401043184366
:1031E00020F0004008494A685B0D03F4806343F017
:1031F0007F7343F4583343F47F7343F0030322EAAD
:103200000303184348607047001C005810B586B08F
:10321000002301930293039304930593154CA36D2C
:1032200023F4407343F40073A365D4F8E03043F013
:103230000803C4F8E0304FF4405301931223029383
:10324000042305930DEB03010B48FDF7B7FBD4F8FE
:10325000F43043F08003C4F8F430084BF02283F8D4
:103260005F234FF00041996083F860230122DA6008
:1032700006B010BD00440258000C025800E100E006
:1032800008B5FFF7C3FF144B1A6822F001021A6059
:10329000124A1A619A6822F400429A604FF400427E
:1032A0009A60596802F100720A435A60DA6822F49F
:1032B0000042DA600022DA601A601A6822F4805252
:1032C0001A601A681A601A6822F470621A601A6822
:1032D00042F001021A6008BD001C00587321600012
:1032E000F8B506460F4611461D46BDF81840214B5D
:1032F0009B6913F4004FFAD11E4B9B6913F0020F28
:10330000FAD11D4B0022C9B23046FFF763FF194BBB
:103310009B6913F0020FFAD1164B9F62154B9B6904
:1033200013F0400FFAD0154B4FF00072E1B2304667
:10333000FFF750FF0F4A926912F0040FFAD00D4BBD
:103340005B6A05F8013B013CA4B2002CF2D1094BA9
:103350009B6913F0200FFAD0064B2022DA615A68DD
:1033600022F0FF7222F48B3222F4FF7222F001026B
:103370005A60F8BD001C0058002000800024008026
:10338000F8B506460F4611461D46BDF81840224BBB
:103390009B6913F4004FFAD11F4B9B6913F0020F86
:1033A000FAD11E4B4FF08072C9B23046FFF712FFC0
:1033B000194B9B6913F0020FFAD0174B9F62164B03
:1033C0009B6913F0800FFAD000234FF00072E1B236
:1033D0003046FFF7FFFE104A926912F0020FFAD052
:1033E00015F8012B0C4B9A62013CA4B2002CF2D1CF
:1033F000094B9B6913F0200FFAD0074B2022DA61AA
:103400005A6822F0FF7222F48B3222F4FF7222F00B
:1034100001025A60F8BD00BF001C00580020008067
:103420000020704770B58CB005461F4A6B4692E885
:10343000030083E803001D4B06931D4B07931D4BB0
:103440000A931D4B09931D4B0B930124012C03D9A7
:103450004FF0FF300CB070BD0CAB03EB840333F8BE
:10346000303CADF8203006A9154800F02DFB08B11E
:103470000134EBE702A9124800F06CFA0028F7D1FA
:10348000029B112BF4D10E4E03A9304600F016FA20
:103490000C4B43F825600C4B0C4A13601B683046FC
:1034A00098470028E4D1D5E7704B0308D9340008C9
:1034B00021340008F9340008E3340008D13400084E
:1034C000580A0024900A002434000024BC0A002476
:1034D00008B5FDF7A9FB08BD08B5FFF7D1FE002030
:1034E00008BD00B583B0009313460122FFF748FFE3
:1034F000002003B05DF804FB00B583B000931346D1
:103500000122FFF7EDFE002003B05DF804FB000090
:10351000054B1B68012B01D000207047024B002295
:103520001A600120704700BF800A002470B584B083
:1035300005460C46FFF776FF21681A4B05EB85021E
:1035400003EBC20643F8321063687360A368B3608C
:10355000E368F360144B1B68DB6901A9134A52F856
:1035600025009847029B3361039B7361002113E0A0
:103570002368E26813445A1C0A4805EB850301EBF3
:1035800043039E1D40F826206268E66832440132FB
:10359000083340F8232001310129E9D9002004B083
:1035A00070BD00BF940A0024BC0A0024900A0024C5
:1035B00008B10020704710B586B00446124AD2F810
:1035C000E03043F48063C2F8E030802301930123AC
:1035D0000393022304934FF40413029301A90B48AD
:1035E000FDF7ECF90A4B1B681B6A0A4A52F82400E3
:1035F0009847094BF02283F817234FF400021A6012
:10360000002006B010BD00BF004402580028025838
:10361000BC0A0024900A002400E100E008B5094932
:103620004FF448730B604FF4F0734B600C238B60C6
:103630000523CB600020FFF779FF0020FFF7B8FFDC
:1036400008BD00BFC00A0024F0B585B004460D4691
:10365000434B1B681B6901A9424A52F82000984756
:10366000002879DB0198002867D0029F039A04EBB9
:1036700084013D4E06EBC101896811F0080F02D1AB
:1036800013463A461F4611F0020F07D004EB84039D
:10369000354E06EBC3031B699B1A5A1E11F0040F2B
:1036A00007D004EB8403304901EBC3035B69DF1BE4
:1036B000013F2D4B04EB840603EBC60153F8363073
:1036C00002FB03F30A69B3FBF2F36B604A6807FB82
:1036D00002F24E69B2FBF6F2AA6028608E69B3422C
:1036E0001DD9A3EB060C04EB84011F4800EBC101BC
:1036F000096A8A4216D9521A04EB84011A4800EB6F
:10370000C101C968614501D391420DD2164A04EB4B
:10371000840102EBC1018B61AB680B621CE0A6EB7C
:10372000030CE0E78A1AE7E76E6004EB84040E4BB3
:1037300003EBC404236AAB600EE000232B600A4B4A
:1037400004EB840203EBC20292696A6004EB840416
:1037500003EBC404236AAB60002005B0F0BD00BFDA
:10376000BC0A0024900A0024940A002470B505467F
:103770000C46074E31460020FFF766FF33680BB951
:10378000002070BD72682A80B36823800120F8E7AA
:10379000840A00244FF0B043D3F8883053B1064B6D
:1037A00001221A604FF0B042D2F8883043F0800313
:1037B000C2F88830704700BF800A002410B5446802
:1037C0008068A04710BD10B504688068A04710BD90
:1037D00008B50A4601231946FFF7F0FF08BD10B5EA
:1037E0000C4601230A460221FFF7E8FF18B92378A7
:1037F00003F00F03237010BD00B583B08DF80710E0
:1038000001230DF107029121FFF7DDFF03B05DF801
:1038100004FB00B583B08DF8071001230DF10702FA
:103820009221FFF7D0FF03B05DF804FB00B583B031
:103830008DF8071001230DF107029321FFF7C3FF55
:1038400003B05DF804FB00B583B08DF807100123C9
:103850000DF107029421FFF7B6FF03B05DF804FBFA
:1038600000B583B08DF8071001230DF107029521F3
:10387000FFF7A9FF03B05DF804FB00B583B08DF836
:10388000071001230DF107029621FFF79CFF03B0FB
:103890005DF804FB00B583B08DF8071001230DF12E
:1038A0000702A421FFF78FFF03B05DF804FB08B502
:1038B0000A460123A821FFF781FF08BD01230B70F1
:1038C0000020487002238B704FF448734B604FF414
:1038D000F0738B60704790F82430012B01D00020EA
:1038E0007047002380F82430F9E70020704700205B
:1038F000704710B504690089A04710BD10B5C468B1
:103900000089A04710BD70B50E4600F11805097872
:103910002846FFF771FF044631792846FFF779FF03
:103920000444317A2846FFF781FF0444317B28465E
:10393000FFF789FF0444317C2846FFF791FF0444D8
:10394000317D2846FFF799FF201800D170BD4FF058
:10395000FF30FBE710B582B00C460DF107011830BF
:10396000FFF7A5FF9DF80730236002B010BD00B53A
:1039700083B00DF107011830FFF731FF38B99DF81A
:103980000730022B00D8184603B05DF804FB4FF057
:10399000FF30F9E730B583B005460C46FFF7E7FF87
:1039A000206004230DEB0302032105F11800FFF74B
:1039B00005FF98B99DF804301B0203F470639DF86D
:1039C0000520134363609DF806301B0203F4706307
:1039D0009DF807201343A36003B030BD4FF0FF30C4
:1039E000FAE730B585B005460C46FFF7C0FF20600A
:1039F0000C2301AA032105F11800FFF7DFFE0028C0
:103A000039D102469DF804100B0203F470639DF84F
:103A10000500034363609DF806301B0203F47063E6
:103A20009DF807000343E3608909E1619DF80830D0
:103A300063619DF809301B0963629DF80A100B024F
:103A400003F470639DF80B000343A3609DF80C30F2
:103A50001B0203F470639DF80D0003432361890981
:103A600021629DF80E30A3619DF80F301B09A362FF
:103A7000104605B030BD4FF0FF32F9E708B51830F9
:103A8000FFF7A6FE08BD08B501211830FFF702FFB9
:103A900008BD08B500211830FFF7FCFE08BD90F8FE
:103AA00024305BB910B50446036898472046FFF7F9
:103AB000F0FF012284F8242010B910BD00207047C7
:103AC0004FF0FF30F9E70000A8B108B503460A68D7
:103AD00002604868586008891881C868D860086919
:103AE0001861496959610749D961074999611B62A0
:103AF00022B1904708BD4FF0FF3070474FF0FF30C4
:103B0000F8E700BFF3380008FD380008B0F800C03F
:103B100043889C4515D003441B790B704388C3EB45
:103B2000032309490B44136042880132074B83FB8E
:103B300002131344DB10C3EB0313D31A438000209A
:103B400070470120704700BF100C002489888888C6
:103B500010B5B0F800C00CF10104114B83FB04E375
:103B60002344DB10C3EB0313E31ADBB24488A34204
:103B700013D05FFA8CFC038060440271002308E0DC
:103B800011F803E0CCEB0C240648204400F803E0D5
:103B900001339A42F4DC002010BD0120FCE700BF95
:103BA00089888888100C00242DE9F04105460F46CD
:103BB00016461C46304B1B683BB1984700EB800C07
:103BC0004FEA4C0CDE2C03D9FEE74FF0000CF9E76E
:103BD0002A4B44221A704C215970532199700120AC
:103BE000D87035211971DFF898E09EF8001001EBCC
:103BF00000088EF80080597100219971E4B204F137
:103C00001C0E83F807E04FF0750E83F808E04FF0C4
:103C1000430E83F809E04FF0490E83F80AE0DA72A8
:103C2000CCF307621A73CCF307425A73CCF3072222
:103C30009A7383F80FC02A0102431A745874C7F3A9
:103C400007629A74C7F30742DA74C7F307221A753A
:103C50005F75C6F307629A75C6F30742DA75C6F355
:103C600007221A765E7698768222DA761977597765
:103C70009C77D977BDE8F0811C1B0024D40A00246E
:103C8000D00A002408B5104B186010490F230A46CB
:103C90000220FFF789FF202306E0A3F120020C4950
:103CA000895C0C4AD15401332E2BF6D9002304E051
:103CB000084AD15C084AD15401333B2BF8D9074B51
:103CC0002F221A7008BD00BF181B002443544C4417
:103CD000C44D0308D40A0024D40B0024D10A0024C4
:103CE00000B583B000238DF807300093174B1B6895
:103CF000BBB19847164B1B7823B1164B1B68C31AF0
:103D0000C82B10D86A460DF107011348FFF7FEFED5
:103D1000B0B9124B1B68B3B19DF8071000989847D3
:103D200011E00020E6E70B4B1860094B00221A70E7
:103D30000A4B1B683BB10A4A11780A48984702E0CF
:103D4000094B01221A7003B05DF804FB1C1B002410
:103D5000201B0024241B0024041B0024181B002407
:103D6000D10A0024D40B00246400002408B42DE9F7
:103D7000F04185B006460F4690460BAA52F8041B48
:103D80000392214D05F1200030F04CFC84B2631CFD
:103D90009BB220330022EA54A31C9BB203F1200102
:103DA0006A54424639463046FFF7FEFE04F12202CD
:103DB000D2B229461548FFF7CBFE10B1144B0122B1
:103DC0001A7000238DF80B300193124B1B78DBB275
:103DD000012B04D005B0BDE8F04101B0704701AA45
:103DE0000DF10B010948FFF791FE0028F2D1094BB4
:103DF00000221A70084B1B68002BEBD09DF80B10AB
:103E000001989847E6E700BFD40A0024041B002469
:103E1000201B002464000024181B0024014B1860A0
:103E2000704700BF1C1B002438B5054601F094FA0A
:103E30000446284601F08CFA072C00D038BD002338
:103E40001A4609210248006800F01CF9F6E700BF95
:103E5000841B002438B5054601F07EFA0446284646
:103E600001F076FA072C00D038BD00231A4609214C
:103E70000248006800F006F9F6E700BF901B002436
:103E800038B5054601F068FA0446284601F060FAA4
:103E9000072C00D038BD00231A46092102480068CB
:103EA00000F0F0F8F6E700BF801B002438B50546A7
:103EB00001F052FA0446284601F04AFA072C00D0D5
:103EC00038BD00231A4609210248006800F0DAF8DC
:103ED000F6E700BF881B002438B5054601F03CFA20
:103EE0000446284601F034FA072C00D038BD0023E0
:103EF0001A4609210248006800F0C4F8F6E700BF3E
:103F0000841B002438B5054601F026FA04462846ED
:103F100001F01EFA072C00D038BD00231A460921F3
:103F20000248006800F0AEF8F6E700BF8C1B0024E2
:103F300038B5044601F010FA0546204601F008FAAB
:103F4000072D00D038BD20462EF080FDFAE738B5A9
:103F5000044601F001FA0546204601F0F9F9072D63
:103F600000D038BD204630F027F9FAE738B50546CD
:103F700001F0F2F90446284601F0EAF9072C00D0D6
:103F800038BD00231A4609210248006800F07AF87B
:103F9000F6E700BF881B002438B5054601F0DCF9C0
:103FA0000446284601F0D4F9072C00D038BD002380
:103FB0001A4609210248006800F064F8F6E700BFDD
:103FC000901B002438B5054601F0C6F90446284682
:103FD00001F0BEF9072C00D038BD00231A46092194
:103FE0000248006800F04EF8F6E700BF8C1B002482
:103FF00038B5054601F0B0F90446284601F0A8F9A5
:10400000072C00D038BD00231A4609210248006859
:1040100000F038F8F6E700BF801B002430B583B00D
:1040200020F0C2FD0446052021F0C4FC0546002016
:1040300021F0C0FC0246104B009300232946204685
:104040001AF082FB0146204600F072FE00F022F8D2
:1040500000F0EEF900F0C6FA00F070FC00F006FD8A
:10406000002003F0C1FF054B1860054B186800F0F5
:10407000F5FF03B030BD00BFB88F0308A41B0024B8
:10408000801B002410B582B00024009400F07EFE56
:1040900002B010BD2DE9F04F85B0002003F0A4FF61
:1040A000CB4C20600022CB4908F079FE0022FF2192
:1040B000206808F07BFE206825F03EF8C64D286099
:1040C000962104F0F7FF9621286805F00AF895215B
:1040D000286804F0B7FF6FF05C01286804F0C9FF9E
:1040E0000921286805F07AF8206826F0DFF8BB4E31
:1040F0003060642104F0DEFF5021306804F0F1FFED
:104100004FF4AF71306804F09DFF6FF0C701306865
:1041100004F0AFFF0921306805F060F84FF48061CA
:10412000306803F06DFF1021306803F0A2FF4FF0FC
:10413000FF3700223946306808F031FE0022FF21A7
:10414000306808F033FE0022A549306808F035FEDB
:10415000206826F0ABF8A34D2860642104F0AAFF84
:104160005021286804F0BDFF9F49286804F06AFFC9
:104170006FF0C701286804F07CFF0921286805F06A
:104180002DF84FF48061286803F03AFF1021286869
:1041900003F06FFF00223946286808F000FE002275
:1041A000FF21286808F002FE00229049286808F0E4
:1041B00004FE20682BF09CFC8D4F38604FF4987102
:1041C00004F078FF4021386804F08BFF6FF0C701DE
:1041D000386804F037FF3221386804F04AFF0921BB
:1041E000386804F0FBFF012120681DF0FDF9814FC4
:1041F0003860962104F05EFF9621386804F071FF64
:104200004FF48571386804F01DFF5421386804F0BC
:1042100030FF0921386804F0E1FF20682BF022FE0E
:10422000754F3860EE2104F045FF6D21386804F0C9
:1042300058FF6FF0FF01386804F004FFAC213868C4
:1042400004F017FF0921386804F0C8FF20681BF04C
:104250009BFF6A4F38604FF40D7104F02BFF4FF451
:104260009371386804F03DFF6FF01601386804F070
:10427000E9FE40F2B711386804F0FBFE0921386806
:1042800004F0ACFF012138681CF098F94FF0320BB4
:10429000CDF80CB04FF0010ACDF808A04FF002099C
:1042A000CDF804904FF00508CDF8008043460A226F
:1042B000494638681CF08AFECDF80CB0CDF808A04D
:1042C000CDF80490CDF8008043460A2200213868DA
:1042D0001CF07CFE19230393CDF808A0CDF80490C0
:1042E000CDF8008043460A22514638681CF06EFE25
:1042F0000022434938681CF0A6F90146414A386853
:104300001CF00DFA5A224FF47A7120681FF03CFD20
:104310003D4F3860B82104F0CDFE9B21386804F091
:10432000E0FE3821386804F08DFE8B21386804F0F7
:10433000A0FE0921386804F051FF4946386803F0AF
:1043400098FE206828F0A8FC304C2060304928F006
:10435000AFFC42F2D171206804F0ACFE42F2D171A0
:10436000206804F0BEFE6FF09F01206804F06AFE32
:104370006FF06701206804F07CFE0921206804F0DA
:104380002DFF2449206803F03BFE1021206803F034
:1043900070FE00224FF07F41206808F038FD0022B7
:1043A000FF21206808F03AFD00221E21206808F055
:1043B00020FD00221E21206808F022FD00231A465D
:1043C0001549306800F0E4FF00231A4626E000BFDC
:1043D000801B00245EC095FF281B0024401B002486
:1043E000000000904C1B0024A2FEFFFF7C8F009079
:1043F000941B0024601B00249C1B00245C1B0024D5
:10440000808080FF68000024981B0024641B002427
:104410001C6F479002000100293E000803492868EC
:1044200000F0B6FF05B0BDE8F08F00BF553E0008B4
:104430002DE9F041002003F0D7FD5F4C20601021F2
:1044400003F017FE206825F031FF5C4D28606421E1
:1044500004F030FE5021286804F043FE58492868D3
:1044600004F0F0FD6FF0C701286804F002FE092196
:10447000286804F0B3FE4FF48061286803F0C0FDA3
:104480001021286803F0F5FD4FF0FF380022414667
:10449000286808F084FC0022FF21286808F086FCC8
:1044A00000224849286808F088FC20681DF0ECFCD0
:1044B000454F38604FF40C7104F0FCFDF62138686C
:1044C00004F00FFE6FF00D01386804F0BBFD5E21B3
:1044D000386804F0CEFD0921386804F07FFE2068BA
:1044E0002CF0B0FE394E30604FF4D37104F0E2FD91
:1044F0006421306804F0F5FD0021306804F0A2FD6D
:104500006FF06D01306804F0B4FD0921306804F0EB
:1045100065FE2F4930682CF0A1FE206825F0C6FE0C
:104520002C4C2060642104F0C5FD5021206804F06B
:10453000D8FD4FF4AF71206804F084FD6FF0C7011F
:10454000206804F096FD0921206804F047FE04214C
:10455000206814F053FE00231A461946206814F010
:1045600079FE4FF48061206803F04AFD1021206835
:1045700003F07FFD00224146206808F010FC002275
:10458000FF21206808F012FC00221349206808F07F
:1045900014FC00231A461149286800F0F9FE31681E
:1045A00038681DF07DFC00231A460D49206800F094
:1045B000EFFEBDE8F08100BF841B00242C1B00240B
:1045C000A2FEFFFF7C8F0090741B0024A01B002420
:1045D000D44D0308481B002400000090813E0008D1
:1045E000AD3E00082DE9F843002003F0FDFCDFF8A4
:1045F0004083C8F80000102103F03BFDD8F800000C
:1046000028F04AFBB84C2060B84928F051FB42F230
:10461000D171206804F04EFD42F2D171206804F09F
:1046200060FD0921206804F0D9FD4FF48031206835
:1046300003F0E6FC1021206803F01BFDD8F8000011
:1046400025F034FEAA4F3860642104F033FD502178
:10465000386804F046FD6FF4AF71386804F0F2FC7E
:104660006FF0C501386804F004FD0921386804F0D2
:10467000B5FD4FF48061386803F0C2FC1021386842
:1046800003F0F7FC4FF0FF3400222146386808F0B1
:1046900086FB0022FF21386808F088FB002295493C
:1046A000386808F08AFBD8F8000025F0FFFD924E2C
:1046B0003060642104F0FEFC5021306804F011FDEC
:1046C0004FF4AF71306804F0BDFC6FF0C701306883
:1046D00004F0CFFC0921306804F080FD4FF48061C4
:1046E000306803F08DFC1021306803F0C2FC00221A
:1046F0002146306808F053FB0022FF21306808F0A3
:1047000055FB00227D49306808F057FBD8F80000BF
:1047100025F0CCFD7A4D2860D22104F0CBFC6C2131
:10472000286804F0DEFC6FF0C901286804F08AFCF8
:104730008C21286804F09DFC0921286804F04EFDB6
:104740004FF48061286803F05BFC1021286803F0B7
:1047500090FC00226B49286808F021FB0022FF2111
:10476000286808F023FB00220A21286808F03AFB99
:10477000D8F8000028F0F4FD634C206042F2D171BB
:1047800004F098FC42F2D171206804F0AAFC6FF0AA
:10479000C701206804F056FC8A21206804F069FCF7
:1047A0000921206804F01AFD5849206829F098FA78
:1047B000DFF8809100224946206808F059FBD8F8BC
:1047C000000025F073FD524C2060F82104F072FCCB
:1047D000A421206804F085FC4FF48071206804F067
:1047E00031FC9E21206804F044FC0921206804F07B
:1047F000F5FC4FF48061206803F002FC1021206872
:1048000003F037FC00223C21206808F03FFB002227
:104810004049206808F0C3FA0022FF21206808F010
:10482000C5FA00224FF07F41206808F0CDFA00223F
:10483000FF21206808F0CFFA00221E21206808F02E
:10484000D1FAD8F8000028F08BFDDFF8EC80C8F82A
:10485000000042F2D17104F02DFC42F2D171D8F87F
:10486000000004F03EFCFE21D8F8000004F0EAFB52
:104870009C21D8F8000004F0FCFB0921D8F80000C6
:1048800004F0ACFC2449D8F8000029F029FA0022F1
:104890002249D8F8000008F0DDFA0022FF21D8F8FC
:1048A000000008F0DEFA00224946D8F8000008F0BF
:1048B000DFFA00231A461A49386800F069FD002320
:1048C0001A461849306800F063FD00231A4616495D
:1048D000286800F05DFD00231A461449206800F0A6
:1048E00057FDBDE8F88300BF681B002410FF2F9020
:1048F000441B00247C8F0090501B0024000000907B
:104900003C1B002411B7F8FF781B0024E44D03087A
:10491000381B002422CAA5FF004E0308808080FFB8
:10492000D93E0008053F0008313F00084F3F00080E
:10493000881B0024381004087C1B002470B500205C
:1049400003F052FB3F4E3060102103F092FB3068C1
:1049500028F0A2F93C4C20603C4928F0A9F942F229
:10496000D171206804F0A6FB42F2D171206804F0F6
:10497000B8FB0921206804F031FC4FF48031206835
:1049800003F03EFB1021206803F073FB306825F034
:104990008DFC2F4D2860642104F08CFB5021286889
:1049A00004F09FFB2B49286804F04CFB6FF0C70113
:1049B000286804F05EFB0921286804F00FFC4FF41E
:1049C0008061286803F01CFB1021286803F051FB6C
:1049D00000222149286808F0F0F9306825F066FCCB
:1049E0001E4C2060642104F065FB5021206804F017
:1049F00078FB4FF4AF71206804F024FB6FF0C7011F
:104A0000206804F036FB0921206804F0E7FB4FF42E
:104A10008061206803F0F4FA1021206803F029FB7C
:104A200000220F49206808F0C8F900231A460D49F2
:104A3000286800F0ADFC00231A460B49206800F0FE
:104A4000A7FC70BD8C1B00246C1B0024F81E019079
:104A5000541B0024A2FEFFFF7C8F0090581B0024F3
:104A6000000000906D3F0008993F0008F8B5002055
:104A700003F0BAFA4F4E3060102103F0FAFA3068B2
:104A800028F00AF94C4C20604C4928F011F942F208
:104A9000D171206804F00EFB42F2D171206804F05D
:104AA00020FB0921206804F099FB4FF48031206835
:104AB00003F0A6FA1021206803F0DBFA306825F035
:104AC000F5FB3F4D2860642104F0F4FA502128687A
:104AD00004F007FB3B49286804F0B4FA6FF0C70103
:104AE000286804F0C6FA0921286804F077FB4FF41F
:104AF0008061286803F084FA1021286803F0B9FA6D
:104B00004FF0FF3700223946286808F048F90022A4
:104B1000FF21286808F04AF900222B49286808F08C
:104B20004CF9306825F0C2FB284C2060642104F069
:104B3000C1FA5021206804F0D4FA4FF4AF71206814
:104B400004F080FA6FF0C701206804F092FA09219E
:104B5000206804F043FB0021206814F04FFB002381
:104B60001A461946206814F075FB4FF480612068DE
:104B700003F046FA1021206803F07BFA0022394640
:104B8000206808F00CF90022FF21206808F00EF9D7
:104B900000220F49206808F010F900231A460D4939
:104BA000286800F0F5FB00231A460B49206800F046
:104BB000EFFBF8BD901B0024701B0024048F18909D
:104BC000301B0024A2FEFFFF7C8F0090341B0024CA
:104BD00000000090C53F0008F13F00080A38C0B24D
:104BE00004288CBF00200120704708B50022C9B2FC
:104BF00008F053F908BD08B509B204F03AFA08BD47
:104C000008B509B204F01EFA08BD38B505460068BB
:104C100008F074F9044600222721006900F06EFBB9
:104C200000222821606900F069FB606920B194F8D6
:104C3000283013F0020F10D10022626194F828305E
:104C400062F3000384F82830A2616021286807F02D
:104C500045FE206904F009FF38BD08F026FAEBE7AD
:104C600070B5044608F04AF9F8B10546066926B160
:104C700000222521304600F041FB2B6923B10022A0
:104C80002621204600F03AFB2C6124B10022272186
:104C9000204600F033FB2B6923B100222821304647
:104CA00000F02CFB204604F0E0FE70BD08B5034682
:104CB00010B12BB1186908BD1FF076FF0346F8E765
:104CC0001846F8E738B50546006808F017F90446B5
:104CD0001FF06AFFFFF7EAFF606128682061002289
:104CE000262100F00BFB38BD08B5034610B12BB1EF
:104CF000586908BD1FF058FF0346F8E71846F8E763
:104D000008B5034610B12BB1D86908BD1FF04CFFA0
:104D10000346F8E71846F8E708B5034610B12BB18B
:104D2000186A08BD1FF040FF0346F8E71846F8E789
:104D300038B50D46044628B11CB1A560636A032B43
:104D400004D038BD1FF030FF0446F5E7E36818686B
:104D500008F007F90028F4D1E368586808F001F971
:104D60000028EED1E368986808F0FBF80028E8D145
:104D7000E368186809F086FBE3E708B5034608B165
:104D8000986808BD1FF010FF0346F9E72DE9F043CE
:104D9000A3B005460F4690461E4608F0AFF80446FD
:104DA0001FF002FFFFF782FF8146A069C0B14845AE
:104DB00016D0FFF755FF0021A06920F007F9002267
:104DC0001146A06904F06CF900226021A06907F087
:104DD00085FD94F8283013F0020F68D1D4F81890AC
:104DE000A561606920B194F8283013F0020F62D1F8
:104DF0003846FFF7F3FE94F8283060F3000384F898
:104E00002830DBB29DF8A82062F3410384F82830F3
:104E10000021284620F0DAF81FF0C6FEFFF746FF13
:104E2000002120F0D3F800221146284604F038F97A
:104E30001FF0BAFEFFF73AFF0022114604F030F9E6
:104E400000226021284607F049FD1FF0ADFEFFF764
:104E50002DFF0022602107F041FD58EA06032FD004
:104E600011A820F099F81195774B1393774B149371
:104E7000CDF8708076421D96684620F08DF8236943
:104E80000093CDF82C800C960E2F23D8DFE817F076
:104E90001C0030003A0045004F005A006C007E00B4
:104EA0009000A200AA00B200BD00C700D200484690
:104EB00008F0FBF892E708F0F8F80023636197E741
:104EC0002846FFF7CDFE10E0614B129300231993A3
:104ED0001A931B9300222521484600F00FFA11A8CF
:104EE00020F0A6F8684620F0A3F823B0BDE8F083D0
:104EF000574B129320461FF05DFE19901A90002325
:104F00001B93E7E7524B129320461FF053FE40429B
:104F100019901A9000231B93DCE74E4B1293204606
:104F20001FF060FE19901A9000231B93D2E7494BA3
:104F3000129320461FF056FE404219901A9000230B
:104F40001B93C7E7424E129620461FF033FE19907E
:104F50001A9000251B95019620461FF02BFE40421B
:104F6000089509950A90B5E7394E129620461FF02C
:104F700021FE404219901A9000251B95019620466B
:104F80001FF018FE089509950A90A3E7314E129676
:104F900020461FF027FE19901A9000251B950196B8
:104FA00020461FF01FFE4042089509950A9091E7A0
:104FB000284E129620461FF015FE404219901A9076
:104FC00000251B95019620461FF00CFE08950995BB
:104FD0000A907FE7204B1293002319931A93FF2323
:104FE0001B9377E71C4B0193FF230893099300233E
:104FF0000A936FE7164B019320461FF0DBFD4042FA
:105000000023089309930A9064E7114B019320460B
:105010001FF0D0FD0023089309930A905AE70D4B27
:10502000019320461FF0DEFD4042002308930993C0
:105030000A904FE7074B019320461FF0D3FD002352
:10504000089309930A9045E7C54C00080B4C0008EB
:10505000014C0008F74B0008EB4B000800B583B08B
:10506000002100910B460A46FFF790FE03B05DF861
:1050700004FB10B50C46034640B133B1D3F85821B8
:1050800044B101210A44C3F8582110BD1FF08CFD22
:105090000346F2E74FF0FF31F4E708B5034638B1B5
:1050A00053B1D3F858010028D4BF0020012008BD17
:1050B0001FF07AFD0346F3E70020F8E708B5034642
:1050C00010B12BB1586808BD1FF06EFD0346F8E71C
:1050D0001846F8E7806858B1837E03F03F038B429F
:1050E00005D9C06801EB410100EB81007047002049
:1050F00070470000037E13F0040F4FD110B5044633
:10510000037A233B012B01D8012010BD4FF48041CD
:10511000406803F006F80028F7D0237A113B1B2BD8
:10512000F3D801A252F823F09951000899510008D0
:1051300099510008995100089951000899510008A7
:105140009951000899510008995100089951000897
:10515000995100080B5100080B51000899510008A3
:105160000B5100080B510008995100089951000893
:1051700099510008995100080B5100080B51000883
:105180000B5100080B510008995100089951000873
:105190000B510008995100080020B6E70020704725
:1051A00010B50C4608B1006803E04B68186800E0D1
:1051B000006810B10369002BFAD060B1036963B1D4
:1051C0000023E360036921469847237E13F0010F13
:1051D00005D1012010BD0120FCE70120FAE70020E5
:1051E000F8E7F8B5064601F0B7F858B100688368EB
:1051F0000BB1317A9847337E13F0020774D113F064
:10520000010F72D100217068FFF764FF044600258A
:1052100011E06368F360236830469847337E13F0EB
:10522000020764D113F0010F5FD101352946706880
:10523000FFF750FF04467CB12368002BF5D0237A9A
:1052400094F90820002AF0DA802BE2D023F08003C2
:10525000327A9342E9D1DCE731460020FFF7A0FF24
:10526000074620B100217068FFF734FF044600258F
:1052700011E06368F360236830469847337E13F08B
:10528000020236D113F0010F35D10135294670687D
:10529000FFF720FF0446231E18BF0123012F18BF6C
:1052A00000236BB12368002BEFD0227A94F90830E9
:1052B000002BEADB002ADCD0337A9A42E5D1D8E72A
:1052C000012F12D173685B687BB13046FFF712FF84
:1052D00058B173685B6873603046FFF782FF07461A
:1052E000012802D0002700E001273846F8BD012739
:1052F000FBE70127F9E71746F7E7000018B310B5F9
:1053000088B0019002908DF80C1000230493059250
:105310009DF81C2063F300028DF81C20D2B263F3C9
:1053200082028DF81C20D2B263F341028DF81C205A
:10533000064C2368069301A82060FFF752FF069BE6
:10534000236008B010BD0120704700BFA81B0024D7
:105350000068704740687047007A00F07F0070472F
:1053600000697047C0687047084B1B6804E01A7EEC
:1053700042F001021A765B6933B15A688242F6D074
:105380001A688242F7D1F2E7704700BFA81B0024D9
:105390002DE9F04104460F4616461D4603F0F4F889
:1053A000A1688B7E03F03F02013262F305038B7626
:1053B000D4F8088098F81A1001F03F0101EB410180
:1053C0008900D8F80C0020F04FFFC8F80C00A36843
:1053D000DA684AB39B7E03F03F0303EB43039B0071
:1053E0000C3BD750A368DA68997E01F03F0101EBCE
:1053F00041039B000C3B13441E72A268D368927E4B
:1054000002F03F0202EB420292000C3A1A4455604D
:10541000A368D8689B7E03F03F0303EB43039B0024
:105420000C3B1844BDE8F081FEE708B5037A013B68
:10543000DBB20F2B02D8FFF793FF08BD0020FCE77B
:1054400008B5037AA3F11402D2B2182B18BF022AAE
:1054500003D9172B01D0192B02D1FFF781FF08BD0B
:105460000020FCE7037A132B00D0704710B50C46E0
:10547000FFF776FFB0F90010A142B8BF21460180C6
:1054800010BDF8B5054600201FF024FC0446002698
:10549000374605E02646274620461FF01BFC0446FB
:1054A0005CB1204600F05EFF636DAB42F4D1022890
:1054B0000ED00428EED02646EEE70FB13846F8BDF0
:1054C0000EB13746FAE700201FF004FC0746F5E767
:1054D0002746F3E72DE9F047037F13F0010F6FD163
:1054E00006468A469146C5684FF001080027E5B197
:1054F000012357B32BB129463046C847054687429A
:1055000069D0002DF3D0286802F018FE10F0800F4B
:10551000EDD12C68ECB10121204602F002FEC0B9A9
:10552000204607F0DFFC0446F4E7337F13F0080F52
:1055300001D1002F49D1B8F1000F43D03046D047F8
:1055400005464FF000084346D3E7002D40D02F46D4
:10555000D0E72CB10121204602F0E3FD0028C6D19E
:10556000F368AB423AD08BB11C683046FFF789FF35
:1055700002460F212046FFF7C1FE012802D04FF05E
:1055800000081FE0F368186804F06FFAF5602C68F3
:105590003046FFF776FF02460E212046FFF7AEFEAB
:1055A000012802D04FF000080CE0F368186804F0FE
:1055B0005CFA3369ABB1304698474FF0010801E01F
:1055C0004FF000084046BDE8F0874FF00008F9E7CB
:1055D0004FF00008F6E74FF00008F3E74FF000083F
:1055E000F0E74FF00108EDE708B52021014820F071
:1055F00001FC08BDF01E0024014B1868704700BF75
:10560000AC1B002410B50446054A0649FFF762FFAB
:1056100063691BB110B901212046984710BD00BF36
:10562000915E0208815E020810B50446054A0649EB
:10563000FFF750FF63691BB110B90021204698475E
:1056400010BD00BF995E0208895E020838B50446A5
:10565000037FC3F3C00543F008030377DBB213F005
:10566000040F06D1FFF7CEFF237F65F3C303237733
:1056700038BDFFF7D9FFF7E770B5064602F066FDC3
:10568000002849D00546C36813B11B68B34213D044
:10569000EB6813B11B68B34230D0284620F0F0FB12
:1056A0000446002C38D02368B3422AD0214628462D
:1056B00020F0EEFB0446F4E7037F13F0010F03D064
:1056C000037F6FF300030377284620F0D9FBEB68D4
:1056D000834203D02846FFF7B9FFD9E7284620F0D8
:1056E000D3FBEB688342F5D11C682846FFF7C9FE5F
:1056F00002460F212046FFF701FEC9E70023EB60B9
:10570000CBE72146284620F0CAFB204620F090FD3A
:10571000B3680BB100229A6070BD002839D070B513
:105720000C4605460846FFF7A7FF284620F0A8FBD1
:10573000014639B10B68A3421ED0284620F0A8FBD1
:105740000146F6E7204602F001FD30B1A3689B68F0
:105750001BB1DB681B68A3420FD0A36883B1A368A9
:105760009D60284620F06DFB064668B1046028461F
:1057700020F086FB864208D070BDFFF767FFECE79C
:10578000204602F001FFEAE7FEE72846FFF75EFF4A
:10579000F2E7704718B1C06808B1006870477047F9
:1057A00010B582B00191FFF7F5FF68B10446802182
:1057B00002F0C6FC10B1012002B010BD01AA0D21FB
:1057C0002046FFF79BFDF7E70120F5E7F8B170B53C
:1057D0000446037FC3F340038B4213D0037F61F37E
:1057E00041030377FFF7D6FF054658B1E3681E680B
:1057F0002046FFF746FE02460E213046FFF77EFDAB
:10580000012800D070BD284604F02FF9FAE7704750
:10581000002845D0F8B5054602F098FC064618B1B8
:10582000037F13F0010F00D0F8BD0021FFF7CEFF7A
:10583000304620F025FB0446002CF5D02368AB420F
:1058400005D02146304620F023FB0446F4E7F368F8
:1058500083B11F68AF420DD03046FFF712FE0246FB
:105860000F213846FFF74AFD0128DDD1F36818689B
:1058700004F0FBF8F46033690BB130469847F368E5
:105880001C683046FFF7FDFD02460E212046FFF75B
:1058900035FD0128C8D1F368186804F0E6F8C3E7BD
:1058A000704718B1007FC0F3400070470020704778
:1058B00008B520F04CFB08BD437913F0020F1DD052
:1058C00000238362C3620363427963F3000242717F
:1058D0008364C3648383C38390F8442063F3030227
:1058E00080F8442003844384A0F84030A0F842307C
:1058F000427963F341024271014A1360704700BF6D
:10590000B41B0024407810F0020F02D0024B00229A
:105910001A60C0F340007047B41B002438B5044639
:1059200004213E4B186802F0FCFB50B3236B3B4A4A
:105930001068834225D002F009FC0546206B08B1AF
:1059400002F004FCA8421DD000283FD0236B5BB1BD
:1059500000284AD0324A126810211846FFF7CEFCC0
:105960002046FFF7CFFF60B9002D4AD02B4B1868B7
:10597000FFF74EFF2046FFF7C5FF10B9274B1B6806
:10598000236338BD4DB1254B1868FFF741FF204612
:10599000FFF7B8FF0028F1D0F3E7206B48B1204BA8
:1059A0001A680F21FFF7AAFC2046FFF7ABFF00287B
:1059B000E7D11B4B1A680E21184B1868FFF79EFCA5
:1059C0002046FFF79FFF0028D8D0DAE7236B002B93
:1059D000BCD0134A12680F211846FFF78FFC2046EF
:1059E000FFF790FF0028BFD0CBE70D4A12680F21C8
:1059F0001846FFF783FC2046FFF784FF0028B3D04A
:105A0000BFE7074B1A680E21044B1868FFF776FCB6
:105A10002046FFF777FF0028B0D0B2E7B41B002480
:105A2000B01B0024C36A03B1704770B5054690F8F7
:105A3000413013F0010F61D1446A03E0204607F0C2
:105A400051FA044634B14FF40041204602F069FB9C
:105A50000028F3D1002C51D0B5F9143083EAE3715A
:105A6000A1EBE37189B2334A12681068807E8142EB
:105A70000AD2B5F916100029B8BF494289B2884246
:105A800002D90021A987E987A98F11FA83F31BB2F4
:105A9000AB87E98AE88F014409B2E98783EAE370BA
:105AA000A0EBE37080B2166896F81BC0604507D87B
:105AB00081EAE17EAEEBE17E1FFA8EFEF4451DD257
:105AC00095F841C04CF0010C85F841C081EAE17CB9
:105AD000ACEBE17C1FFA8CFC604518D9002B0EDD85
